:04000000FEEF3FF0E0
:100800000000000E046E000E036E1AEF04F0000EDE
:10081000066E000E056E054A062A065009E1A50E71
:10082000055CD8A016EF04F018EF04F00BEF04F00D
:10083000034A042A0150035C02500458D8A023EF55
:1008400004F025EF04F007EF04F01200720ED36EEF
:10085000936A896A956A8C6A8A68010E026EF40E40
:10086000016E01EC04F08A6A8C68010E026EF40ECF
:10087000016E01EC04F02BEF04F0FEEF3FF00001FD
:0408800026EF04F06B
:047FFC003FEF04F05F
:020000040030CA
:0E0000000008191EFF8080FF0FC00FE00F40A8
:00000001FF
