:107F3000B3EF3FF0020DF3507F0EFA6E460EF324BE
:107F4000D8B0FA2AF96EFC0C600CDA0CF20C660C54
:107F5000B60CBE0CE00CFE0CE60CEE0C3E0C9C0CC1
:107F60007A0C9E0C8E0C8D6A080E966E8A6A000E34
:107F7000936E0F0EC16E700ED36E006BC0EF3FF0AC
:107F800000510F0BE7EC3FF0816E84B6C0EF3FF07D
:107F9000D3EC3FF0D8EC3FF084A6CCEF3FF0D8EC28
:107FA0003FF0C0EF3FF0002B0A0E0061006B1200A3
:107FB000D59E870ED56EFC0ED76EF30ED66EF2945C
:107FC000D58EF2A4E1EF3FF0F294D59E1200020D9F
:107FD000F3507F0EFA6EE00EF324D8B0FA2AF96E51
:107FE000FC0C600CDA0CF20C660CB60CBE0CE00C4F
:107FF000FE0CE60CEE0C3E0C9C0C7A0C9E0C8E0CCF
:020000040030CA
:040000002008191E9D
:02000500008178
:060008000FC00FE00F40E5
:00000001FF
