:04000000FEEF3FF0E0
:107756005284525008097FEC3CF01200010E7FEC77
:107766003CF0566A576A026A020E016EFBEC3BF069
:107776001200056E8380839205380F0BCCEC3CF02B
:1077860005500F0BCCEC3CF0572A12009B7E6E7E08
:107796003A7E817FA17FC87E057EC17FF17E607FB4
:1077A600167F3B7F00401454DAEF3BF000D0010611
:1077B600D8A00206012806E10228D8A4E5EF3BF08E
:1077C600E7EF3BF0D9EF3BF012008394026A010E1B
:1077D600016ED7EC3BF08384026A010E016ED7EC92
:1077E6003BF08394026A640E016ED7EC3BF0120004
:1077F60004EF3CF0030E036E980EE82EFED7032E20
:10780600FCD70106D8A00206012806E10228D8A462
:107816000FEF3CF011EF3CF0FDEF3BF01200076E6E
:107826005450065CD8A01AEF3CF01CEF3CF01EEF5B
:107836003CF05404066E06C056F007C057F00650DA
:107846004D0FD96EDA6ADF50072480097FEC3CF0D1
:10785600120038EF3CF006C0F6FF07C0F7FF08003D
:10786600F550BCEC3BF0064A072A06C0F6FF07C0F7
:10787600F7FF0800F5500009D8A444EF3CF046EFA6
:107886003CF02EEF3CF01200920EF66E770EF76E7D
:10789600000EF86E00EE35F010EE1CF00900F5CF84
:1078A600EEFFE550E150FAE100EE51F0070EEE6A08
:1078B600E806FDE1000EF86E000151EF3EF001C052
:1078C60003F002C004F06AEF3CF0014A022A01C04C
:1078D600F6FF02C0F7FF0800F5500009D8A476EFBE
:1078E6003CF078EF3CF068EF3CF00350015C016E31
:1078F60004500258026E1200056E8390839205387A
:107906000F0BCCEC3CF005500F0BCCEC3CF0050417
:10791600D8B490EF3CF092EF3CF09BEF3CF0020EB7
:107926000518D8A499EF3CF09BEF3CF0A0EF3CF093
:10793600026A020E016EFBEC3BF0120009C001F078
:107946000AC002F062EC3CF001500D6E0C6A555014
:107956000D5CD8B0B1EF3CF0B3EF3CF0C0EF3CF0BB
:107966000D50555C016E026AD8A00206046A020E2A
:10797600036E53EC3DF001500C6E0BC006F00C503C
:1079860012EC3CF009C006F00AC007F02CEC3CF003
:107996001200046E04C003F0010E0316033A83506E
:1079A6000318EF0B0318836E04C003F0D89003325C
:1079B600010E0316033A034683500318DF0B031820
:1079C600836E04C003F0D8900332D8900332010EC0
:1079D6000316033A0346034683500318BF0B0318E6
:1079E600836E04C003F0D8900332D8900332D89047
:1079F6000332010E031603320332835003187F0B42
:107A06000318836EE8EC3BF01200076E9590959292
:107A160095949598959A959C959E83908392839438
:107A260007C055F006C054F0566A576A080E516EE4
:107A3600026A320E016EFBEC3BF083908394030ED8
:107A4600CCEC3CF0026A050E016EFBEC3BF0030E3B
:107A5600CCEC3CF0026A960E016ED7EC3BF0030EBE
:107A6600CCEC3CF0026A960E016ED7EC3BF0020EAF
:107A7600CCEC3CF0026A960E016ED7EC3BF051500E
:107A860020097FEC3CF0040E526EABEC3BF0B1ECFF
:107A96003BF0020E536E535004097FEC3CF012008B
:107AA600066A04BE5BEF3DF059EF3DF061EF3DF035
:107AB600036C041ED8B0042A010E066E02BE68EFDF
:107AC6003DF066EF3DF06EEF3DF0016C021ED8B062
:107AD600022A010E061A086A000E076E03500410E9
:107AE600D8B478EF3DF07AEF3DF0A2EF3DF0010E0D
:107AF600056E82EF3DF0D89003360436052A04AEB3
:107B060087EF3DF089EF3DF07EEF3DF0D8900736E8
:107B160008360350015C04500258D8A095EF3DF09A
:107B260097EF3DF09CEF3DF00350015E0450025A82
:107B36000780D89004320332052E89EF3DF00650B7
:107B4600D8B4A8EF3DF0AAEF3DF0AEEF3DF0076CDC
:107B5600081ED8B0082A07C001F008C002F01200BB
:107B660008C001F009C002F062EC3CF00150166E4C
:107B76001650555CD8A0C2EF3DF0C4EF3DF0D1EFF2
:107B86003DF00AC006F0000E12EC3CF008C006F00C
:107B960009C007F02CEC3CF050EF3EF055C011F058
:107BA600126A3AEF3EF00AC006F0000E12EC3CF004
:107BB600106AE2EF3DF0200EBCEC3BF0102A555067
:107BC600105CD8A0E9EF3DF0EBEF3DF0DEEF3DF0C5
:107BD6000AC006F0000E12EC3CF0136A28EF3EF0E5
:107BE6001150135C146E1250D8A01228156A155E37
:107BF60015BE00EF3EF002EF3EF024EF3EF01650C9
:107C06000D6E0E6A0D50145C1550800A0F6E0E50E4
:107C1600800A0F58D8B012EF3EF014EF3EF024EF72
:107C26003EF0145008240D6E155009200E6E0DC03E
:107C3600F6FF0EC0F7FF0800F550BCEC3BF027EF4F
:107C46003EF0200EBCEC3BF0132A5550135CD8A036
:107C56002FEF3EF031EF3EF0F3EF3DF00BC001F0B9
:107C66000CC002F0FBEC3BF01106D8A01206165031
:107C76000D6E0E6A0D1E0E1E0D4A0E2A0D50115C5B
:107C86001250800A0F6E0E50800A0F58D8B04EEF71
:107C96003EF050EF3EF0D6EF3DF01200720ED36E7E
:107CA6000F0EC16E070EB46E020E066E100E08ECB5
:107CB6003DF020EE35F010EE19F0170EDBCFE3FFA6
:107CC600E806FCE2326A0C0E316EB1EC3BF0EE0EC9
:107CD600096E7F0E0A6E000E0B6EA1EC3CF0DD0EF7
:107CE600086E7F0E096E010E0A6E0C6AFA0E0B6E96
:107CF600B3EC3DF0150E186E4B0E176EBE0EE82E49
:107D0600FED7172EFCD7182EFAD700D0346A000EED
:107D1600336ED2EF3EF0B1EC3BF03350020DF35030
:107D2600190FD96EDA6ADECF08F0DDCF09F0000E42
:107D36000A6E0C6A640E0B6EB3EC3DF0060E186EFE
:107D4600130E176EAE0EE82EFED7172EFCD7182E82
:107D5600FAD7B1EC3BF03350020DF3CF17F0020E19
:107D660017261750190FD96EDA6ADECF08F0DDCF65
:107D760009F0010E0A6E0C6AC80E0B6EB3EC3DF0EC
:107D8600100E186E390E176E0E0EE82EFED7172E31
:107D9600FCD7182EFAD7020E3326000E34223150A5
:107DA600335C3450800A176E3250800A1758D8A0B8
:107DB600DFEF3EF0E1EF3EF08EEF3EF0B1EC3BF050
:107DC600F40E096E7F0E0A6E000E0B6EA1EC3CF0EF
:107DD600F80E096E7F0E0A6E010E0B6EA1EC3CF0DA
:107DE6000B0E186E260E176E5E0EE82EFED7172E99
:107DF600FCD7182EFAD7F3EF3EF0FEEF3FF0004522
:107E06007320646F6D696E676F2064652062616AB6
:107E16006F6E2079206F7472612076657A207069A2
:107E260064657320706572646F6E2061686F72613D
:107E3600207369004C6F7320646F6D696E676F7392
:107E46002064652062616A6F6E207465206461201B
:107E5600706F7220706564697220706572646F6EEF
:107E660020657320617369005365206163756D75C4
:107E76006C616E206C6F7320766965726E65732017
:107E8600717565206E6F20717569657265732073F3
:107E9600616C697200517565207365207369656E42
:107EA600746520656E206C6173206E6F6368657300
:107EB6002073696E20706F64657220646F726D69DD
:107EC600720054752070617361737465206C612053
:107ED600706167696E61207920746520636F7274C2
:107EE6006F20656C20706170656C004E6F20767532
:107EF600656C766173206375616E646F206E6F20AA
:107F0600746520717569657261206E6164696500CA
:107F16007369206E6F207369727665206D692061C2
:107F26006D6F7220756C74696D6F20726965206D56
:107F3600656A6F7200706F72717565206E6F20686A
:107F46006173207675656C746F2061207265697245
:107F5600206F7472612076657A004E6920637561C0
:107F66006E646F20706C616E65732073616C6761FF
:107F76006E20616C20726576657300592071756597
:107F860020626F6E69746F2061686F72612074651C
:107F960020746F63612061207469005465206A75DE
:107FA600726F20717565206E6F2071756965726FCD
:107FB6002073657220637275656C00596F20657356
:107FC600612070656C6963756C61207961206D65EF
:107FD600206C6120766900446F6D696E676F20645E
:107FE600652062616A6F6E004D6F7261740046496A
:0A7FF6004E003C33000047EF3CF062
:020000040030CA
:0E0000000008191EFF8080FF0FC00FE00F40A8
:00000001FF
