:100020000F0EC16E000E936E030E926E816A0D6A02
:100030000F6AFF0E106E8050030B0F6E0F50105C96
:10004000D8B426EF00F00D6A0F50106E1050000E5D
:10005000105CD8B43DEF00F0010E105CD8B44AEF4C
:1000600000F0020E105CD8B45CEF00F0030E105CE0
:10007000D8B460EF00F01BEF00F00D506DEC00F015
:10008000816EFBEC00F00D2A100E0D5CD8B40D6AE9
:100090001BEF00F00D50AFEC00F0816EFBEC00F0B8
:1000A000000E0D5CD8B458EF00F00D061BEF00F009
:1000B000070E0D6E1BEF00F0816A0D6A1BEF00F05A
:1000C0000D50D1EC00F0816EFBEC00F00D2A0A0E11
:1000D0000D5CD8B40D6A1BEF00F00E6E000E0E5CC6
:1000E000D8B4FC0C010E0E5CD8B40C0C020E0E5CE5
:1000F000D8B4DA0C030E0E5CD8B4F20C040E0E5C0D
:10010000D8B4660C050E0E5CD8B4B60C060E0E5CA8
:10011000D8B4BE0C070E0E5CD8B4E00C080E0E5C12
:10012000D8B4FE0C090E0E5CD8B4E60C0A0E0E5CB8
:10013000D8B4EE0C0B0E0E5CD8B43E0C0C0E0E5C5C
:10014000D8B49C0C0D0E0E5CD8B47A0C0E0E0E5C5E
:10015000D8B49E0C0F0E0E5CD8B48E0CFC0C0E6E38
:10016000000E0E5CD8B4FC0C010E0E5CD8B40C0C66
:10017000020E0E5CD8B4DA0C030E0E5CD8B4F20C8E
:10018000040E0E5CD8B4660C050E0E5CD8B4B60C2A
:10019000060E0E5CD8B4BE0C070E0E5CD8B4E00C94
:1001A000FC0C0E6E000E0E5CD8B4FC0C010E0E5C46
:1001B000D8B40C0C020E0E5CD8B4DA0C030E0E5C34
:1001C000D8B4F20C040E0E5CD8B4660C050E0E5CAE
:1001D000D8B4B60C060E0E5CD8B4BE0C070E0E5C7E
:1001E000D8B4E00C080E0E5CD8B4FE0C090E0E5C00
:1001F000D8B4E60CFC0C2F0ED76EA20ED66E820E73
:0C020000D56EF2A401EF01F0F2941200A0
:020000040030CA
:040000002008191E9D
:020005008081F8
:060008000FC00FE00F40E5
:00000001FF
