:04000000FEEF3FF0E0
:10763600398439500809E6EC3BF012003A823A5098
:107646000409E6EC3BF01200399039500809E6ECE3
:107656003BF01200399239500809E6EC3BF0120073
:10766600010EE6EC3BF03D6A3E6A226A020E216E8E
:107676007FEC3BF01200256E8380839225380F0B3A
:107686002FEC3CF025500F0B2FEC3CF03E2A12005D
:10769600717F317F617F817F417FE17E217F017F25
:1076A600117FE17E917FF17EE17E517F004014548F
:1076B6005EEF3BF000D02106D8A02206212806E185
:1076C6002228D8A469EF3BF06BEF3BF05DEF3BF06F
:1076D60012008394226A010E216E5BEC3BF08384D8
:1076E600226A010E216E5BEC3BF08394226A640EE3
:1076F600216E5BEC3BF0120088EF3BF0030E236E2D
:10770600980EE82EFED7232EFCD72106D8A02206F7
:10771600212806E12228D8A493EF3BF095EF3BF011
:1077260081EF3BF01200276E3B50265CD8A09EEFFF
:107736003BF0A0EF3BF0A2EF3BF03B04266E26C0E9
:107746003DF027C03EF026501D0FD96EDA6ADF5095
:1077560027248009E6EC3BF01200BCEF3BF026C084
:10776600F6FF27C0F7FF0800F5503EEC3BF0264A2F
:10777600272A26C0F6FF27C0F7FF0800F5500009A4
:10778600D8A4C8EF3BF0CAEF3BF0B2EF3BF01200D3
:10779600960EF66E760EF76E000EF86E00EE01F09F
:1077A60010EE20F00900F5CFEEFFE550E150FAE1CA
:1077B60000EE38F0070EEE6AE806FDE1000EF86E00
:1077C6000001C6EF3EF0256E8390839225380F0B9D
:1077D6002FEC3CF025500F0B2FEC3CF02504D8B4D1
:1077E600F7EF3BF0F9EF3BF002EF3CF0020E251805
:1077F600D8A400EF3CF002EF3CF007EF3CF0226A21
:10780600020E216E7FEC3BF01200720ED36E956A6B
:107816008C6A926A936A946A070EB46E0F0EC16EF2
:10782600020E266E100E36EC3DF0020E296E040E88
:10783600286EBA0EE82EFED7282EFCD7292EFAD7A8
:1078460000D01BEC3BF02DEC3BF027EC3BF021ECA1
:107856003BF0AA0E8A6E1200246E24C023F0010E9D
:107866002316233A83502318EF0B2318836E24C064
:1078760023F0D8902332010E2316233A2346835051
:107886002318DF0B2318836E24C023F0D8902332ED
:10789600D8902332010E2316233A234623468350DB
:1078A6002318BF0B2318836E24C023F0D8902332ED
:1078B600D8902332D8902332010E23162332233256
:1078C600835023187F0B2318836E6CEC3BF0120059
:1078D6002A6E060E2A6472EF3CF074EF3CF076EFE7
:1078E6003CF0A8EF3CF02A50020DF3CF29F033EC20
:1078F6003BF01A0E286EF80EE82EFED7282EFCD77F
:1079060000D0000E266E000E96EC3BF02950020DBC
:10791600F350010FD96EDA6ADECF26F0DDCF27F0FD
:10792600B0EC3BF0010E266E000E96EC3BF02950B3
:10793600020DF350030FD96EDA6ADECF26F0DDCFE3
:1079460027F0B0EC3BF02A288A6E12002A6A1C0E39
:10795600E6EC3BF04E0E286EEB0EE82EFED7282EF8
:10796600FCD700002A2A0F0E2A64BCEF3CF0BEEFBB
:107976003CF0AAEF3CF0000E266E0F0E96EC3BF0A4
:107986002B6A2E0E3EEC3BF0030E296E080E286E77
:10799600770EE82EFED7282EFCD7292EFAD7000020
:1079A600200E3EEC3BF0020E296E040E286EBA0E37
:1079B600E82EFED7282EFCD7292EFAD700D02B2A60
:1079C600020E2B64E9EF3CF0EBEF3CF0C4EF3CF029
:1079D60012002C6A2CC026F0000E96EC3BF02A6AA8
:1079E6002E0E3EEC3BF04E0E286EEB0EE82EFED72A
:1079F600282EFCD700002A2A0F0E2A6405EF3DF038
:107A060007EF3DF0F3EF3CF0020E296E040E286EF0
:107A1600BA0EE82EFED7282EFCD7292EFAD700D08C
:107A26002CC026F0000E96EC3BF02B6A200E3EECA6
:107A36003BF0340E286EF20EE82EFED7282EFCD729
:107A46002B2A0F0E2B642AEF3DF02CEF3DF019EF99
:107A56003DF02C2A010E2C6433EF3DF035EF3DF05E
:107A6600EDEF3CF01200276E9590959295949598BF
:107A7600959A959C959E83908392839427C03CF01B
:107A860026C03BF03D6A3E6A080E386E226A320E08
:107A9600216E7FEC3BF083908394030E2FEC3CF039
:107AA600226A050E216E7FEC3BF0030E2FEC3CF0B4
:107AB600226A960E216E5BEC3BF0030E2FEC3CF037
:107AC600226A960E216E5BEC3BF0020E2FEC3CF028
:107AD600226A960E216E5BEC3BF038502009E6ECEC
:107AE6003BF0040E396E1BEC3BF033EC3BF0020E20
:107AF6003A6E3A500409E6EC3BF0120033EC3BF0E8
:107B0600000E266E040E96EC3BF0E00E266E7F0EFF
:107B1600276EB0EC3BF0010E266E030E96EC3BF0A2
:107B2600F30E266E7F0E276EB0EC3BF02A6A010E2E
:107B3600266E0B0E96EC3BF0000E3EEC3BF0040E70
:107B4600296E0C0E286E340EE82EFED7282EFCD792
:107B5600292EFAD7010E266E0B0E96EC3BF0200E60
:107B66003EEC3BF0040E296E0C0E286E340EE82E09
:107B7600FED7282EFCD7292EFAD72A2A020E2A64E7
:107B8600C7EF3DF0C9EF3DF09AEF3DF0150E296EB7
:107B96004B0E286EBE0EE82EFED7282EFCD7292EB9
:107BA600FAD700D01200266A24BEDEEF3DF0DCEFE5
:107BB6003DF0E4EF3DF0236C241ED8B0242A010EDC
:107BC600266E22BEEBEF3DF0E9EF3DF0F1EF3DF022
:107BD600216C221ED8B0222A010E261A286A000E0F
:107BE600276E23502410D8B4FBEF3DF0FDEF3DF097
:107BF60025EF3EF0010E256E05EF3EF0D8902336B8
:107C06002436252A24AE0AEF3EF00CEF3EF001EFB3
:107C16003EF0D890273628362350215C245022582F
:107C2600D8A018EF3EF01AEF3EF01FEF3EF02350BB
:107C3600215E2450225A2780D89024322332252EC2
:107C46000CEF3EF02650D8B42BEF3EF02DEF3EF071
:107C560031EF3EF0276C281ED8B0282A27C021F025
:107C660028C022F0120033EC3BF0A10E2E6E7F0EE0
:107C76002F6E0E0E306E226A020E216E246A020EDE
:107C8600236ED6EC3DF02150316E336A3150335CB1
:107C9600D8A050EF3EF052EF3EF06BEF3EF0305082
:107CA60031C029F02A6A2926000E2A2233502B6E6B
:107CB6002C6A29502B5C2C50800A2D6E2A50800A83
:107CC6002D58D8A069EF3EF06BEF3EF073EF3EF013
:107CD600000E266E335096EC3BF02A0E3EEC3BF03F
:107CE6004E0E296EEB0EE82EFED7292EFCD700008D
:107CF600332A0F0E336482EF3EF084EF3EF049EFF5
:107D06003EF0000E266E315096EC3BF02EC026F06B
:107D16002FC027F0B0EC3BF0010E266E050E96EC58
:107D26003BF0BE0E266E7F0E276EB0EC3BF0326A3D
:107D3600010E266E325096EC3BF0FF0E3EEC3BF009
:107D4600020E2A6E040E296EBA0EE82EFED7292ED2
:107D5600FCD72A2EFAD700D0322A0F0E3264B6EF9D
:107D66003EF0B8EF3EF09BEF3EF00B0E2A6E260E6D
:107D7600296E5E0EE82EFED7292EFCD72A2EFAD7BC
:107D860033EC3BF0120008EC3CF036EC3EF0060E0D
:107D9600356E130E346EAE0EE82EFED7342EFCD79B
:107DA600352EFAD7376A37506BEC3CF0060E37188B
:107DB600D8A4E0EF3EF0E2EF3EF0F0EF3EF0290E01
:107DC600356E960E346E7F0EE82EFED7342EFCD717
:107DD600352EFAD70000FCEF3EF01F0E356E710E01
:107DE600346E1E0EE82EFED7342EFCD7352EFAD76B
:107DF60000D0060E376002EF3FF004EF3FF006EFCB
:107E06003FF0A9EC3CF0372A060E37640DEF3FF041
:107E16000FEF3FF0D6EF3EF081EC3DF0ECEC3CF09E
:107E260033EC3BF0000E266E010E96EC3BF0B00EE6
:107E3600266E7F0E276EB0EC3BF0010E266E040E0A
:107E460096EC3BF0EA0E266E7F0E276EB0EC3BF00A
:107E5600100E356E390E346E0E0EE82EFED7342E09
:107E6600FCD7352EFAD7030E366E010E266E070E98
:107E760096EC3BF03650300F3EEC3BF0090E356E7B
:107E86001E0E346EE40EE82EFED7342EFCD7352EA9
:107E9600FAD700D0010E266E070E96EC3BF0200EA8
:107EA6003EEC3BF0030E356E080E346E770EE82E70
:107EB600FED7342EFCD7352EFAD7000036063650BC
:107EC600D8A468EF3FF06AEF3FF038EF3FF033ECAD
:107ED6003BF0CAEF3EF0FEEF3FF0002020202020CE
:107EE60020202020202020202020002020202020AC
:107EF60020746520202020202020007369656D7085
:107F06007265206D7579202020200020206C656E1A
:107F160074616D656E746520202000566F7920614E
:107F2600206C656572746520202000202061207118
:107F36007565726572746520202000202074757343
:107F4600207375656E6F7320202000202020202D61
:107F5600204D6F726174202D202000566F792061AC
:107F660020657374756469617220002050617261C6
:107F760020617072656E6465722000636F6D6F209C
:107F860073652063756D706C656E005175696572F9
:107F96006F20656E74656E646572007069737461D6
:107FA600206465204D6F72617400526570726F6453
:107FB600756369656E646F0043617267616E646FB5
:107FC6002E2E2E0043616E63696F6E2064653A0043
:107FD6002D204D6F726174202D0046696E206465F8
:107FE600206C61006465206E7565766F007069733C
:0A7FF60074613C330000CBEF3BF058
:020000040030CA
:0E0000000008191EFF8080FF0FC00FE00F40A8
:00000001FF
