:04000000FEEF3FF0E0
:10080000009E1C9E9C8D0AFD9E2A9C9E8EEE1CFDC9
:0B081000BE0AEE8E0CB68DEE16000046
:10081C009268936A0F0EC16E700ED36E046A000E4E
:10082C00036E0350010F016E01C0F6FF0800F5CFF7
:10083C0081FF060E026E130E016EAE0EE82EFED771
:10084C00012EFCD7022EFAD7034A042A045009E1E0
:10085C00170E035CD8A035EF04F037EF04F017EF58
:10086C0004F014EF04F0FEEF3FF0000EF86E080EEB
:08087C00F76E00010EEF04F01D
:047FFC003BEF04F063
:020000040030CA
:0E0000000008191EFF8080FF0FC00FE00F40A8
:00000001FF
