:04000000FEEF3FF0E0
:10080000004C4953544F212100323032362121000F
:0708100046454C495A000067
:10081800720ED36E956A8C6A070EB46E0F0EC16E97
:10082800020E066E100E7FEC04F0020E096E040E26
:10083800086EBA0EE82EFED7082EFCD7092EFAD776
:1008480000D0CEEC05F0C8EC05F00B6A030E0A6E7A
:10085800BDEC05F0000E066E070E45EC05F0010E26
:10086800066E76EC05F0010E066E070E45EC05F0F7
:100878000A50300FB0EC05F00B0E096E260E086E0C
:100888005E0EE82EFED7082EFCD7092EFAD70A06E8
:10089800D8A00B060BBE5BEF04F00B5006E10A0470
:1008A800D8B059EF04F05BEF04F02CEF04F0BDEC86
:1008B80005F0000E066E030E45EC05F0100E066EF0
:1008C80076EC05F0010E066E070E45EC05F0090EF4
:1008D800066E76EC05F01F0E096E710E086E1E0E80
:1008E800E82EFED7082EFCD7092EFAD700D029EF1C
:1008F80004F0FEEF3FF0076E9590959295949598C9
:10090800959A959C959E83908392839407C010F046
:1009180006C00FF0116A126A080E0C6E026A320ED7
:10092800016E5FEC05F083908394030ECAEC04F02B
:10093800026A050E016E5FEC05F0030ECAEC04F0C6
:10094800026A960E016E9FEC05F0030ECAEC04F0E5
:10095800026A960E016E9FEC05F0020ECAEC04F0D6
:10096800026A960E016E9FEC05F00C50200906EC09
:1009780005F0040E0D6ECEEC05F0BDEC05F0020E90
:100988000E6E0E50040906EC05F01200046E04C049
:1009980003F0010E0316033A83500318EF0B0318F4
:1009A800836E04C003F0D8900332010E0316033A95
:1009B800034683500318DF0B0318836E04C003F04B
:1009C800D8900332D8900332010E0316033A034637
:1009D800034683500318BF0B0318836E04C003F04B
:1009E800D8900332D8900332D8900332010E031600
:1009F80003320332835003187F0B0318836E8CEC89
:100A080005F01200056E8390839205380F0BCAEC2F
:100A180004F005500F0BCAEC04F00504D8B417EF26
:100A280005F019EF05F022EF05F0020E0518D8A41D
:100A380020EF05F022EF05F027EF05F0026A020E1D
:100A4800016E5FEC05F01200A80EF66E0B0EF76E45
:100A5800000EF86E00EE13F010EE04F00900F5CF6A
:100A6800EEFFE550E150FAE100EE0CF0070EEE6AF9
:100A7800E806FDE1000EF86E080EF76E00010CEFB7
:100A880004F0076E0F50065CD8A04DEF05F04FEF4D
:100A980005F051EF05F00F04066E06C011F007C00F
:100AA80012F00650130FD96EDA6ADF500724800956
:100AB80006EC05F0120068EF05F0030E036E980EC1
:100AC800E82EFED7032EFCD70106D8A0020601287F
:100AD80006E10228D8A473EF05F075EF05F061EF81
:100AE80005F012007FEF05F006C0F6FF0800F5508C
:100AF800B0EC05F0062A06C0F6FF0800F55000091C
:100B0800D8A489EF05F08BEF05F078EF05F0120017
:100B18008394026A010E016E9FEC05F08384026AD9
:100B2800010E016E9FEC05F08394026A640E016E5B
:100B38009FEC05F01200A2EF05F000D00106D8A046
:100B48000206012806E10228D8A4ADEF05F0AFEFB0
:100B580005F0A1EF05F01200056E83808392053839
:100B68000F0BCAEC04F005500F0BCAEC04F0122A64
:100B78001200010E06EC05F0116A126A026A020EF2
:100B8800016E5FEC05F012000D920D50080906EC9D
:100B980005F012000D840D50080906EC05F012004E
:040BA80000401454A1
:047FFC0028EF05F075
:020000040030CA
:0E0000000008191EFF8080FF0FC00FE00F40A8
:00000001FF
