:107F7600D6EF3FF0020DF3507F0EFA6E8C0EF3240F
:107F8600D8B0FA2AF96EFC0C600CDA0CF20C660C0E
:107F9600B60CBE0CE00CFE0CE60CEE0C3E0C9C0C7B
:107FA6007A0C9E0C8E0C896AFF0E926E8A6A000EFF
:107FB600936E0F0EC16EE0EF3FF080500F0BE7ECB3
:107FC6003FF0816EE0EF3FF0020DF3507F0EFA6E48
:107FD600E00EF324D8B0FA2AF96EFC0C600CDA0C29
:107FE600F20C660CB60CBE0CE00CFE0CE60CEE0CAD
:0A7FF6003E0C9C0C7A0C9E0C8E0CC5
:020000040030CA
:040000002008191E9D
:020005008081F8
:060008000FC00FE00F40E5
:00000001FF
