:04000000FEEF3FF0E0
:100800000000700ED36E936A816A926838EC04F02F
:1008100026EC04F001C007F002C008F0D8900830C0
:10082000066E0730056E0550096E09C081FF060E81
:10083000066E130E056EAE0EE82EFED7052EFCD703
:10084000062EFAD708EF04F0FEEF3FF0C282C2B2E4
:100850002CEF04F02EEF04F027EF04F0C450046EE8
:10086000036AC3500324016E000E0420026E1200BE
:10087000010EC26E0E0EC16EAA0EC06E12000001F5
:0408800001EF04F090
:047FFC003FEF04F05F
:020000040030CA
:0400000000091F1EB6
:0200060081FF78
:00000001FF
