:107DCA00E7EF3EF0896AFF0E926E8A6A936A816AC9
:107DDA000F0EC16E720ED36E006AFF0E026EF6EFC0
:107DEA003EF080500F0B0262FDEF3EF0FFEF3EF0D7
:107DFA00026E006A025009EC3FF0816E58EC3FF0C7
:107E0A0052EC3FF0F6EF3EF0020DF3507E0EFA6EA2
:107E1A00240EF324D8B0FA2AF96E22EF3FF028EFA5
:107E2A003FF02EEF3FF034EF3FF03AEF3FF040EFF4
:107E3A003FF046EF3FF04CEF3FF0030E016E00506B
:107E4A0067EC3FF01200070E016E005074EC3FF031
:107E5A001200040E016E005085EC3FF012000B0E6A
:107E6A00016E005095EC3FF01200090E016E0050B1
:107E7A00AAEC3FF01200070E016E0050BDEC3FF075
:107E8A001200090E016E0050CEEC3FF012000F0EE8
:107E9A00016E0050E7EC3FF01200002A005001602A
:107EAA001200006A1200D59E850ED56E850ED76E19
:107EBA00EE0ED66EF294D58EF2A461EF3FF0F294F4
:107ECA00D59E1200020DF3507E0EFA6EE00EF324D8
:107EDA00D8B0FA2AF96EEE0CDB0C7C0C1C0C020DE5
:107EEA00F3507E0EFA6EFA0EF324D8B0FA2AF96E1F
:107EFA000C0C0A0CFD0C2A0C020C9F0CEE0C2A0C22
:107F0A00020DF3507F0EFA6E1C0EF324D8B0FA2A33
:107F1A00F96E7C0CCE0C0C0C0C0C9C0CB60CEE0CFA
:107F2A00020DF3507F0EFA6E3C0EF324D8B0FA2AF3
:107F3A00F96E7A0C0C0CB60CCE0CFD0CB60C0C0CB3
:107F4A008D0C0C0C380CFD0CB60C020DF3507F0E88
:107F5A00FA6E660EF324D8B0FA2AF96EB60CCE0C75
:107F6A000C0C7A0C9E0C0A0C020C9F0CEE0C2A0CC0
:107F7A00020DF3507F0EFA6E8C0EF324D8B0FA2A53
:107F8A00F96E2A0CEE0C8D0CEE0C9C0C0C0CFD0CF4
:107F9A002A0C020DF3507F0EFA6EAE0EF324D8B0FF
:107FAA00FA2AF96EFC0C600CDA0CF20C660CB60CB0
:107FBA00BE0CE00CFE0CE60CEE0C3E0C9C0C7A0C93
:107FCA009E0C8E0C020DF3507F0EFA6EE00EF32417
:107FDA00D8B0FA2AF96E8E0C9E0C7A0C9C0C3E0CC8
:107FEA00EE0CE20CFE0CE00CBE0CB60C660CF20CAD
:067FFA00DA0C600CFE0C25
:020000040030CA
:040000002008191E9D
:020005008081F8
:060008000FC00FE00F40E5
:00000001FF
