:107DDA00EFEF3EF0896AFF0E926E8A6A936A816AB1
:107DEA000F0EC16E720ED36E006AFF0E026EFEEFA8
:107DFA003EF080500F0B026205EF3FF007EF3FF0B5
:107E0A00026E006A025011EC3FF0816E60EC3FF0A6
:107E1A005AEC3FF0FEEF3EF0020DF3507E0EFA6E82
:107E2A00340EF324D8B0FA2AF96E2AEF3FF030EF75
:107E3A003FF036EF3FF03CEF3FF042EF3FF048EFC4
:107E4A003FF04EEF3FF054EF3FF0030E016E00504B
:107E5A006FEC3FF01200050E016E00507CEC3FF013
:107E6A001200040E016E00508BEC3FF012000B0E54
:107E7A00016E00509BEC3FF01200030E016E0050A1
:107E8A00B0EC3FF01200070E016E0050BDEC3FF05F
:107E9A001200090E016E0050CEEC3FF012000F0ED8
:107EAA00016E0050E7EC3FF01200002A005001601A
:107EBA001200006A1200D59E850ED56E850ED76E09
:107ECA00EE0ED66EF294D58EF2A469EF3FF0F294DC
:107EDA00D59E1200020DF3507E0EFA6EF00EF324B8
:107EEA00D8B0FA2AF96EEE0CDB0C7C0C1C0C020DD5
:107EFA00F3507F0EFA6E0A0EF324D8B0FA2AF96EFE
:107F0A003E0CEE0C8D0C9F0CEE0C2A0C020DF3505D
:107F1A007F0EFA6E280EF324D8B0FA2AF96E7C0C7A
:107F2A00CE0C0C0C0C0C9C0CB60CEE0C020DF35087
:107F3A007F0EFA6E480EF324D8B0FA2AF96E7A0C3C
:107F4A000C0CB60CCE0CFD0CB60C0C0C8D0C0C0CDF
:107F5A00380CFD0CB60C020DF3507F0EFA6E720E41
:107F6A00F324D8B0FA2AF96E8D0C2E0CFD0C0A0CEB
:107F7A00020DF3507F0EFA6E8C0EF324D8B0FA2A53
:107F8A00F96EBE0C0C0C9F0C2A0CEE0CB60C0C0CE9
:107F9A00EE0C020DF3507F0EFA6EAE0EF324D8B03B
:107FAA00FA2AF96EFC0C600CDA0CF20C660CB60CB0
:107FBA00BE0CE00CFE0CE60CEE0C3E0C9C0C7A0C93
:107FCA009E0C8E0C020DF3507F0EFA6EE00EF32417
:107FDA00D8B0FA2AF96E8E0C9E0C7A0C9C0C3E0CC8
:107FEA00EE0CE20CFE0CE00CBE0CB60C660CF20CAD
:067FFA00DA0C600CFE0C25
:020000040030CA
:040000002008191E9D
:020005008081F8
:060008000FC00FE00F40E5
:00000001FF
