:107E9400A0EF3FF0020DF3507E0EFA6EAA0EF3240B
:107EA400D8B0FA2AF96EFC0C600CDA0CF20C660CF1
:107EB400B60CBE0CE00CFE0CE60CEE0C3E0C9C0C5E
:107EC4007A0C9E0C8E0C020DF3507E0EFA6EDC0EB4
:107ED400F324D8B0FA2AF96EE00CBE0CB60C660C8A
:107EE400F20CDA0C600CFC0C020DF3507E0EFA6EF0
:107EF400FE0EF324D8B0FA2AF96EFC0C600CDA0CEE
:107F0400F20C660CB60CBE0CE00CFE0CE60CEE0C8F
:107F14003E0C9C0C7A0C9E0C8E0C020DF3507F0EC2
:107F2400FA6E300EF324D8B0FA2AF96EE00CBE0CC7
:107F3400B60C660CF20CDA0C600CFC0C896AFF0EB1
:107F4400926E8A6A936A816A0F0EC16E720ED36E44
:107F5400006AFF0E026EAFEF3FF080500F0B02621B
:107F6400B6EF3FF0B8EF3FF0026E006A0250C2EC89
:107F74003FF0816EF1EC3FF0EBEC3FF0AFEF3FF000
:107F8400020DF3507F0EFA6E960EF324D8B0FA2A3F
:107F9400F96ED3EF3FF0D9EF3FF0DFEF3FF0E5EFBD
:107FA4003FF00F0E016E005076EC3FF01200070E0A
:107FB400016E00508FEC3FF01200000E016E005075
:107FC40076EC3FF01200090E016E005076EC3FF0A3
:107FD4001200002A005001601200006A1200D59EAF
:107FE400850ED56E850ED76EEE0ED66EF294D58EB6
:0C7FF400F2A4FAEF3FF0F294D59E1200C8
:020000040030CA
:040000002008191E9D
:020005008081F8
:060008000FC00FE00F40E5
:00000001FF
