:107F6600C6EF3FF0020DF3507F0EFA6E7C0EF3243F
:107F7600D8B0FA2AF96EFC0C600CDA0CF20C660C1E
:107F8600B60CBE0CE00C896AFF0E926E8A6A000E71
:107F9600936E0F0EC16E720ED36E006BD3EF3FF071
:107FA60000510F0BEFEC3FF0816EE0EC3FF0002B41
:107FB600080E0061006BD3EF3FF0D59E850ED56E9F
:107FC600850ED76EEE0ED66EF294D58EF2A4E9EF3C
:107FD6003FF0F294D59E1200020DF3507F0EFA6E1A
:107FE600F00EF324D8B0FA2AF96EFC0C600CDA0C09
:0A7FF600F20C660CB60CBE0CE00C99
:020000040030CA
:040000002008191E9D
:020005008081F8
:060008000FC00FE00F40E5
:00000001FF
