:04000000FEEF3FF0E0
:100800000000720ED36E0F0EC16E956A8C6A820E56
:10081000036EDE0EE82EFED7032EFCD78C900C0E56
:100820008C6EB4EC04F00D0E036EFC0EE82EFED7B9
:10083000032EFCD7B4EC04F0850EE82EFED70000A2
:10084000B4EC04F0850EE82EFED70000080E8C6E86
:10085000B4EC04F0850EE82EFED70000280E4AEC1A
:1008600004F00C0E4AEC04F0060E4AEC04F0010E03
:100870004AEC04F0060E036E300EE82EFED7032E6F
:10088000FCD700D098EC04F0BCEC04F046EF04F088
:10089000FEEF3FF0026E8C9002C001F0D890013262
:1008A000D89001323C0E01168C50C30B01108C6E97
:1008B000B4EC04F002C001F00F0E0116D89001361E
:1008C000D89001368C50C30B01108C6EB4EC04F040
:1008D0000204D8A46EEF04F070EF04F078EF04F097
:1008E000060E016E300EE82EFED7012EFCD700D08A
:1008F0001200026E8C8002C001F0D8900132D890B4
:1009000001323C0E01168C50C30B01108C6EB4ECFE
:1009100004F002C001F00F0E0116D8900136D890F5
:1009200001368C50C30B01108C6EB4EC04F0120035
:10093000400E4AEC04F0040E79EC04F00E0E79EC53
:1009400004F01F0E79EC04F00E0E79EC04F0040EA6
:1009500079EC04F00A0E79EC04F0040E79EC04F062
:10096000040E79EC04F012008C8200D08C92420EBE
:10097000E82EFED700D01200870E4AEC04F0000EDD
:0C09800079EC04F01200000101EF04F01B
:047FFC00C3EF04F0DB
:00000001FF
