:04000000FEEF3FF0E0
:1008000000FC60DAF266B6BEE0FEE6EE3E9C7A9E42
:100810008E009268936A0F0EC16E700ED36E046ADA
:10082000000E036E0350010F016E01C0F6FF0800B9
:10083000F5CF81FF060E026E130E016EAE0EE82E8E
:10084000FED7012EFCD7022EFAD7034A042A045001
:1008500009E1100E035CD8A030EF04F032EF04F091
:1008600012EF04F00FEF04F0FEEF3FF0000EF86E11
:0A087000080EF76E000109EF04F016
:047FFC0036EF04F068
:020000040030CA
:0E0000000008191EFF8080FF0FC00FE00F40A8
:00000001FF
