:04000000FEEF3FF0E0
:107436003984395008091AEC3BF012003994395056
:1074460008091AEC3BF012003A823A5004091AEC89
:107456003BF012003990395008091AEC3BF0120043
:107466003992395008091AEC3BF01200010E1AEC59
:107476003BF03D6A3E6A266A020E256EAEEC3AF095
:107486001200296E8380839229380F0B90EC3BF013
:1074960029500F0B90EC3BF03E2A120054EF3AF0C5
:1074A60000D02506D8A02606252806E12628D8A439
:1074B6005FEF3AF061EF3AF053EF3AF01200377FA0
:1074C600267F7B7FD17E157F8C7FF37ED17E6A7F80
:1074D6009D7F047FD17E597F487FE27ED17ED17E1B
:1074E600AE7F004014540004081F08040000000486
:1074F600021F0204000000040A110A040000000A28
:107506001F1F0E0400008394266A010E256E51EC9F
:107516003AF08384266A010E256E51EC3AF0839484
:10752600266A640E256E51EC3AF012001D0E2C6E82
:10753600000EFAEC3AF0150E2C6E010EFAEC3AF04B
:107546000D0E2C6E020EFAEC3AF0050E2C6E030EA2
:10755600FAEC3AF01200B7EF3AF0030E276E980EE7
:10756600E82EFED7272EFCD72506D8A026062528E6
:1075760006E12628D8A4C2EF3AF0C4EF3AF0B0EFFD
:107586003AF012002B6E3B502A5CD8A0CDEF3AF0B1
:10759600CFEF3AF0D1EF3AF03B042A6E2AC03DF025
:1075A6002BC03EF02A50010FD96EDA6ADF502B2429
:1075B60080091AEC3BF01200EBEF3AF02AC0F6FF16
:1075C6002BC0F7FF0800F55044EC3AF02A4A2B2A64
:1075D6002AC0F6FF2BC0F7FF0800F5500009D8A413
:1075E600F7EF3AF0F9EF3AF0E1EF3AF012002D6ECC
:1075F600070E2D162D38E842F80B40091AEC3BF021
:107606002E6A2C502E24D96EDA6ADF5044EC3AF0FA
:107616002E2A070E2E6412EF3BF014EF3BF004EF18
:107626003BF03DC02AF03E50C5EC3AF01200296E00
:107636008390839229380F0B90EC3BF029500F0B67
:1076460090EC3BF02904D8B42BEF3BF02DEF3BF048
:1076560036EF3BF0020E2918D8A434EF3BF036EF94
:107666003BF03BEF3BF0266A020E256EAEEC3AF09D
:107676001200720ED36E956A8C6A926A936A946A45
:10768600070EB46E0F0EC16E020E2A6E100E0AECB5
:107696003CF0020E306E040E2F6EBA0EE82EFED7A8
:1076A6002F2EFCD7302EFAD700D099EC3AF01BECEF
:1076B6003AF033EC3AF02DEC3AF027EC3AF0AA0E19
:1076C6008A6E1200C40EF66E740EF76E000EF86E19
:1076D60000EE60F010EE24F00900F5CFEEFFE55065
:1076E600E150FAE1E80EF66E740EF76E000EF86ED3
:1076F60000EE01F010EE24F00900F5CFEEFFE550A4
:10770600E150FAE100EE38F0070EEE6AE806FDE118
:10771600000EF86E000174EF3EF0286E28C027F0C8
:10772600010E2716273A83502718EF0B2718836E6A
:1077360028C027F0D8902732010E2716273A274669
:1077460083502718DF0B2718836E28C027F0D890A0
:107756002732D8902732010E2716273A2746274682
:1077660083502718BF0B2718836E28C027F0D890A0
:107776002732D8902732D8902732010E2716273283
:107786002732835027187F0B2718836E86EC3AF032
:1077960012002E6E080E2E64D3EF3BF0D5EF3BF0B1
:1077A600D7EF3BF009EF3CF02E50020DF3CF2DF052
:1077B60039EC3AF01A0E2C6EF80EE82EFED72C2E67
:1077C600FCD700D0000E2A6E000EC5EC3AF02D5004
:1077D600020DF350600FD96EDA6ADECF2AF0DDCFE4
:1077E6002BF0DFEC3AF0010E2A6E000EC5EC3AF0F3
:1077F6002D50020DF350620FD96EDA6ADECF2AF0F1
:10780600DDCF2BF0DFEC3AF02E288A6E12002B6EBD
:107816009590959295949598959A959C959E83901A
:10782600839283942BC03CF02AC03BF03D6A3E6AAB
:10783600080E386E266A320E256EAEEC3AF083904C
:107846008394030E90EC3BF0266A050E256EAEEC93
:107856003AF0030E90EC3BF0266A960E256E51EC3C
:107866003AF0030E90EC3BF0266A960E256E51EC2C
:107876003AF0020E90EC3BF0266A960E256E51EC1D
:107886003AF0385020091AEC3BF0040E396E1BEC26
:107896003AF039EC3AF0020E3A6E3A5004091AEC14
:1078A6003BF012002E6A21EC3AF0D00E2C6ECA0E76
:1078B600E82EFED72C2EFCD71BEC3AF0020E2D6ECE
:1078C600380E2C6EAD0EE82EFED72C2EFCD72D2EA4
:1078D600FAD700002E2A020E2E6474EF3CF076EFE3
:1078E6003CF056EF3CF0306A30C02AF0000EC5EC92
:1078F6003AF02F6A200E44EC3AF0270E2C6EF50E65
:10790600E82EFED72C2EFCD700002F2A0F0E2F6450
:107916008FEF3CF091EF3CF07DEF3CF0020E2D6EC8
:10792600040E2C6EBA0EE82EFED72C2EFCD72D2E6A
:10793600FAD700D0302A010E3064A4EF3CF0A6EF4F
:107946003CF077EF3CF0120039EC3AF0000E2A6E6C
:10795600030EC5EC3AF0D90E2A6E7F0E2B6EDFECC5
:107966003AF02E6A010E2A6E070EC5EC3AF0000EAA
:1079760044EC3AF0050E2D6E0F0E2C6EF10EE82E2D
:10798600FED72C2EFCD72D2EFAD70000010E2A6E1C
:10799600070EC5EC3AF0760E44EC3AF0040E2D6E66
:1079A6000C0E2C6E340EE82EFED72C2EFCD72D2E68
:1079B600FAD72E2A050E2E64E3EF3CF0E5EF3CF0F5
:1079C600B5EF3CF02F6A21EC3AF0040E2D6E0C0E4A
:1079D6002C6E340EE82EFED72C2EFCD72D2EFAD781
:1079E6001BEC3AF0030E2D6E080E2C6E770EE82E69
:1079F600FED72C2EFCD72D2EFAD700002F2A030EE9
:107A06002F6408EF3DF00AEF3DF0E6EF3CF00B0E79
:107A16002D6E260E2C6E5E0EE82EFED72C2EFCD773
:107A26002D2EFAD7120039EC3AF02E6A000E2A6E85
:107A36002E50020DF350C5EC3AF0000E44EC3AF02D
:107A4600020E2D6E860E2C6E990EE82EFED72C2E6B
:107A5600FCD72D2EFAD700002E2A070E2E6436EFFD
:107A66003DF038EF3DF019EF3DF0060E2D6E130E8A
:107A76002C6EAE0EE82EFED72C2EFCD72D2EFAD766
:107A8600000E2A6E040EC5EC3AF0EE0E2A6E7F0E3C
:107A96002B6EDFEC3AF0010E2A6E050EC5EC3AF0BD
:107AA600E50E2A6E7F0E2B6EDFEC3AF0100E2D6E71
:107AB600390E2C6E0E0EE82EFED72C2EFCD72D2E50
:107AC600FAD72F6A000E2A6E2F50020DF350C5EC1E
:107AD6003AF0200E44EC3AF0010E2A6E2F50020DB9
:107AE600F350C5EC3AF0200E44EC3AF0820E2C6EC0
:107AF600DE0EE82EFED72C2EFCD72F2A070E2F647B
:107B060087EF3DF089EF3DF065EF3DF0040E2D6EF9
:107B16000C0E2C6E340EE82EFED72C2EFCD72D2EF6
:107B2600FAD712002E6E55EF3EF0316A000E2A6E1D
:107B360031500708C5EC3AF0200E44EC3AF0000E3E
:107B46002A6E3150080FC5EC3AF0200E44EC3AF09C
:107B5600010E2A6E31500708C5EC3AF0200E44ECAF
:107B66003AF0010E2A6E3150080FC5EC3AF0200E9D
:107B760044EC3AF0680E2C6EE40EE82EFED72C2E5E
:107B8600FCD700D0312A070E3164CCEF3DF0CEEFA2
:107B96003DF099EF3DF073EF3EF02F6A180E1AECA8
:107BA6003BF0D00E2C6ECA0EE82EFED72C2EFCD73C
:107BB6002F2A010E2F64E2EF3DF0E4EF3DF0D1EF06
:107BC6003DF073EF3EF0000E2A6E000EC5EC3AF063
:107BD600306A2E0E44EC3AF00F0E3060F5EF3DF0B1
:107BE600F7EF3DF000EF3EF0010E2A6E30500F0821
:107BF600C5EC3AF02E0E44EC3AF0680E2C6EE40E0C
:107C0600E82EFED72C2EFCD700D0302A0F0E30647B
:107C16000FEF3EF011EF3EF0ECEF3DF0030E2D6E50
:107C2600080E2C6E770EE82EFED72C2EFCD72D2EA6
:107C3600FAD7000073EF3EF0326A000E2A6E325019
:107C4600C5EC3AF0020E44EC3AF0010E2A6E3250C0
:107C56000F08C5EC3AF0030E44EC3AF04E0E2C6ECB
:107C6600EB0EE82EFED72C2EFCD70000000E2A6E57
:107C76003250C5EC3AF0200E44EC3AF0010E2A6E72
:107C860032500F08C5EC3AF0200E44EC3AF0322A96
:107C96000F0E326451EF3EF053EF3EF020EF3EF010
:107CA60073EF3EF02E50030B2C6E2D6A2D50000AFA
:107CB600D8B460EF3EF073EF3EF02C50000AD8B413
:107CC60098EF3DF0010AD8B4D0EF3DF0030AD8B4DE
:107CD600E6EF3DF0010AD8B41FEF3EF073EF3EF039
:107CE60012003CEC3BF016EC3DF0090E346E1E0E15
:107CF600336EE40EE82EFED7332EFCD7342EFAD799
:107D060000D0376A3750CCEC3BF0080E3718D8A4B1
:107D16008FEF3EF091EF3EF09FEF3EF0240E346E73
:107D2600830E336ECF0EE82EFED7332EFCD7342EBD
:107D3600FAD70000C0EF3EF037B0A4EF3EF0A6EF52
:107D46003EF0B4EF3EF01A0E346E5E0E336E6E0EDB
:107D5600E82EFED7332EFCD7342EFAD700D0C0EF4C
:107D66003EF0150E346E4B0E336EBE0EE82EFED769
:107D7600332EFCD7342EFAD700D0080E3760C6EF64
:107D86003EF0C8EF3EF0D6EF3EF0375095EC3DF0B2
:107D9600040E346E0C0E336E340EE82EFED7332EE0
:107DA600FCD7342EFAD7372A080E3764DDEF3EF0BB
:107DB600DFEF3EF085EF3EF0A7EC3CF055EC3CF0F3
:107DC60039EC3AF0000E2A6E020EC5EC3AF0CB0EF4
:107DD6002A6E7F0E2B6EDFEC3AF0030E366E010E26
:107DE6002A6E060EC5EC3AF03650300F44EC3AF0E7
:107DF600010E2A6E080EC5EC3AF0000E44EC3AF07D
:107E0600356A050E346E0F0E336EF10EE82EFED770
:107E1600332EFCD7342EFAD70000010E2A6E080E38
:107E2600C5EC3AF0200E44EC3AF0020E346E040E25
:107E3600336EBA0EE82EFED7332EFCD7342EFAD781
:107E460000D0010E2A6E080EC5EC3AF0000E44EC86
:107E56003AF0352A010E356433EF3FF035EF3FF047
:107E660004EF3FF0030E346E080E336E770EE82EE5
:107E7600FED7332EFCD7342EFAD70000010E366417
:107E860047EF3FF049EF3FF059EF3FF0010E2A6E02
:107E9600060EC5EC3AF0200E44EC3AF0010E2A6EBE
:107EA600080EC5EC3AF0200E44EC3AF03606365091
:107EB600D8A460EF3FF062EF3FF0F2EF3EF039EC0E
:107EC6003AF078EF3EF0FEEF3FF000202020202031
:107ED6002020202020202020202020006C6F7320CE
:107EE60064696173202020202020202000656E20F8
:107EF6006C61207669646120202020202000756E48
:107F0600206D6F6D656E746F202020202020004448
:107F1600652065736F732071756520202020200011
:107F26007475766520756E206275656E202020203A
:107F3600004375616E646F2074652076692C20207D
:107F4600200074616C2076657A20746F646F7320EC
:107F560020200059207369206D652064656A61736D
:107F66002C20200051756965726F2074656E6572EC
:107F7600746520200070726573656E74696D69653D
:107F86006E746F2020006C6C6567616E20756E6183
:107F96002076657A20200061756E7175652073659F
:107FA6006120736F6C6F2000202020392D31322D17
:107FB6003230323520200046696E2064656C2070B0
:107FC6006F656D6100526570697469656E646F20D6
:107FD600656E004861737461206C7565676F004556
:107FE6007370656369616C00506F656D61006D6FDC
:057FF60072617400003F
:047FFC0065EF3BF002
:020000040030CA
:0E0000000008191EFF8080FF0FC00FE00F40A8
:00000001FF
