:04000000FEEF3FF0E0
:10080000005465636C61206E6F2076616C69646171
:10081000004E7565766F20323032362100436172AA
:1008200067616E646F2E2E2E003D3D204D454E5566
:10083000203D3D002046656C697A200046656C6964
:100840007A204100412C422C432C44004E617669B1
:100850006461640052656C6F6A005961656C005296
:100860004446006F000008C001F003EC08F0196E68
:1008700084EC0BF001C015F002C016F003C017F0B5
:1008800004C018F013EF05F01950D8B44AEF04F083
:100890004CEF04F02BEF05F00850D96EDA6A180E11
:1008A000D92619C0DFFF0850D96EDA6A1A0ED92688
:1008B000010EDF6E0850D96EDA6A1F0ED92615C0F8
:1008C000DEFF16C0DEFF17C0DEFF18C0DEFF0850D7
:1008D000D96EDA6A1B0ED92615C0DEFF16C0DEFF00
:1008E00017C0DEFF18C0DEFF19502CEF05F00850CE
:1008F000D96EDA6A180ED9261950DE18D8A483EFFB
:1009000004F085EF04F0C5EF04F052C001F053C0CD
:1009100002F0046A0A0E036E96EC09F00150096EAB
:1009200002500A6E0B6A0C6A0850D96EDA6A1F0E02
:10093000D926DECF0DF0DECF0EF0DECF0FF0DECF0A
:1009400010F00D50155C116E0E501658126E0F50AF
:100950001758136E10501858146E0950115C0A5035
:1009600012580B5013580C501458D8A0BAEF04F07A
:10097000BCEF04F02BEF05F00850D96EDA6A1A0EBE
:10098000D926020EDF6E2BEF05F01950D8A4CBEF5D
:1009900004F0CDEF04F02BEF05F00850D96EDA6AC1
:1009A0001A0ED926030EDF6E0850D96EDA6A180EB9
:1009B000D9260850E16EE26A190EE126DFCFE7FF83
:1009C0002BEF05F00850D96EDA6A180ED9261950A7
:1009D000DE18D8B4EEEF04F0F0EF04F02BEF05F0E2
:1009E0000850D96EDA6A1A0ED926030EDF6E085047
:1009F000D96EDA6A180ED9260850E16EE26A190E2D
:100A0000E126DFCFE7FF2BEF05F00850D96EDA6A59
:100A10001A0ED926DF6A0850D96EDA6A180ED9265E
:100A2000DF6A2BEF05F00850D96EDA6A1A0ED92664
:100A3000DF50000AD8B444EF04F0010AD8B477EFCD
:100A400004F0030AD8B4E2EF04F0010AD8B405EFC9
:100A500005F02BEF05F0000E1200A0EC0BF0000EDD
:100A6000066E020EFFEC0AF0020E93EC0BF0340E51
:100A7000086E0850D8A4080E096E00EC0AF0020EA9
:100A800093EC0BF0010E066E020EFFEC0AF0010E65
:100A900093EC0BF04C0E086E0850D8A4080E096EAB
:100AA00000EC0AF0010E93EC0BF0A00E086E33EC94
:100AB00004F01C6E2A0E1C18D8A461EF05F063EF39
:100AC00005F065EF05F0B5EF05F0000E066E000EBF
:100AD000FFEC0AF0545093EC0BF0000E066E0F0E74
:100AE000FFEC0AF0545093EC0BF0010E066E000E72
:100AF000FFEC0AF0010E5424016E026A000E02227D
:100B0000046A060E036EB8EC08F0015093EC0BF08B
:100B1000010E066E0F0EFFEC0AF0010E5424016E5A
:100B2000026A000E0222046A060E036EB8EC08F098
:100B3000015093EC0BF0010E5424016E026A000E7A
:100B40000222046A060E036EB8EC08F00150546EDF
:100B5000060E1B6E130E1A6EAE0EE82EFED71A2E60
:100B6000FCD71B2EFAD755EF05F01200246A256A30
:100B7000A0EC0BF0540E0A6E000E0B6E2FEC0AF078
:100B800024C001F0026A046A0A0E036EA3EC07F0A7
:100B90000150300F1B6E24C001F0026A046A0A0E75
:100BA000036EB8EC08F00150300F1C6E3A0E1D6E4B
:100BB00025C001F0026A046A0A0E036EA3EC07F076
:100BC0000150300F1E6E25C001F0026A046A0A0E41
:100BD000036EB8EC08F00150300F1F6E206A010E52
:100BE000066E050EFFEC0AF01B0E086E096A00EC9B
:100BF0000AF0236A000E226E1A0E1A6EF80EE82E04
:100C0000FED71A2EFCD700D0A00E086E33EC04F0ED
:100C1000216E2A0E2118D8A410EF06F012EF06F06C
:100C200014EF06F03AEF06F0224A232A23BE22EF01
:100C300006F0235009E1640E225CD8A022EF06F0F2
:100C400024EF06F0FCEF05F0252A3B0E25642BEF80
:100C500006F02DEF06F0C0EF05F0256A242A3B0EC2
:100C6000246435EF06F037EF06F0C0EF05F0246A94
:100C7000C0EF05F01200036A046A0350040D02502D
:100C8000F3240424D96EDA6A0350040D0150F324CE
:100C90000424E16EE26ADFCFE7FF042A030E046456
:100CA00054EF06F056EF06F03DEF06F0032A030E70
:100CB00003645DEF06F05FEF06F03CEF06F00150D5
:100CC000D96EDA6A100ED926DF6A0150D96EDA6A57
:100CD000110ED926010EDF6E0150D96EDA6A120E9E
:100CE000D926020EDF6E0150D96EDA6A130ED926AC
:100CF000030EDF6E0150D96EDA6A140ED926040E87
:100D0000DF6E0150D96EDA6A150ED926050EDF6E38
:100D10000150D96EDA6A160ED926060EDF6E015022
:100D2000D96EDA6A170ED926070EDF6EF00E936EB3
:100D30008168F19E0150D96EDA6A180ED926DF6AF1
:100D40000150D96EDA6A190ED926DF6A0150D96EC0
:100D5000DA6A1A0ED926DF6A0150D96EDA6A1B0EDA
:100D6000D926DE6ADE6ADE6ADD6A0150D96EDA6A89
:100D70001F0ED926DE6ADE6ADE6ADD6A1200A0EC8A
:100D80000BF01D0E0A6E000E0B6E2FEC0AF01F6AA0
:100D9000000E1E6E010E066E1E50FFEC0AF0060ECF
:100DA00093EC0BF0020E1B6E040E1A6EBA0EE82EB8
:100DB000FED71A2EFCD71B2EFAD700D0A00E086E35
:100DC00033EC04F01C6E2A0E1C18D8A4EAEF06F0CF
:100DD000ECEF06F0EEEF06F03FEF07F01E4A1F2A99
:100DE0001FBEFCEF06F01F5009E1100E1E5CD8A0DC
:100DF000FCEF06F0FEEF06F0CAEF06F0A0EC0BF0F9
:100E0000000E066E040EFFEC0AF03C0E086E085051
:100E1000D8A4080E096E00EC0AF0000E93EC0BF05B
:100E2000630E086E0850D8A4080E096E00EC0AF094
:100E3000010E066E040EFFEC0AF0110E086E08504B
:100E4000D8A4080E096E00EC0AF0A00E086E33EC70
:100E500004F01D6E2A0E1D18D8A431EF07F033EFF1
:100E600007F035EF07F03FEF07F01A0E1A6EF80E95
:100E7000E82EFED71A2EFCD700D025EF07F012007F
:100E800020EE46F010EE0BF0070EDBCFE3FFE80696
:100E9000FCE220EE88F010EE13F0070EDBCFE3FF4C
:100EA000E806FCE220EE80F010EE1BF0070EDBCF30
:100EB000E3FFE806FCE220EE78F010EE23F0070EE8
:100EC000DBCFE3FFE806FCE220EE70F010EE2BF043
:100ED000070EDBCFE3FFE806FCE220EE68F010EE41
:100EE00033F0070EDBCFE3FFE806FCE220EE60F014
:100EF00010EE3BF0070EDBCFE3FFE806FCE20B0E43
:100F0000086E000EC5EC0AF0130E086E010EC5EC5B
:100F10000AF01B0E086E020EC5EC0AF0230E086ED6
:100F2000030EC5EC0AF02B0E086E040EC5EC0AF099
:100F3000330E086E050EC5EC0AF03B0E086E060E69
:100F4000C5EC0AF01200066A04BEABEF07F0A9EF89
:100F500007F0B1EF07F0036C041ED8B0042A010EAD
:100F6000066E02BEB8EF07F0B6EF07F0BEEF07F06F
:100F7000016C021ED8B0022A010E061A086A000E81
:100F8000076E03500410D8B4C8EF07F0CAEF07F09B
:100F9000F2EF07F0010E056ED2EF07F0D89003369E
:100FA0000436052A04AED7EF07F0D9EF07F0CEEFED
:100FB00007F0D890073608360350015C04500258F9
:100FC000D8A0E5EF07F0E7EF07F0ECEF07F00350EC
:100FD000015E0450025A0780D89004320332052E75
:100FE000D9EF07F00650D8B4F8EF07F0FAEF07F0A2
:100FF000FEEF07F0076C081ED8B0082A07C001F002
:1010000008C002F01200046A0F0E8112015004247D
:10101000D96EDA6A100ED926DF50026E010E036E09
:10102000022A15EF08F0D8900336022E13EF08F0CD
:101030000350FF0A8116060EE82EFED700D0056A7F
:1010400001500524D96EDA6A140ED926DF50026EDB
:10105000010E036E022A2FEF08F0D8900336022EFD
:101060002DEF08F0035081140009D8A43AEF08F0DE
:101070003CEF08F048EF08F00F0E81120450040D09
:101080000150F3240524D96EDA6ADF505DEF08F0D1
:10109000052A030E05644FEF08F051EF08F020EF2A
:1010A00008F0042A030E046458EF08F05AEF08F021
:1010B00004EF08F00F0E8112000E1200720ED36EB4
:1010C0000F0EC16E070EB46E020E066E100E0FEC00
:1010D00009F040EC07F0A00E016E900E026E3BECA2
:1010E00006F04AEC0BF0A00E1A6E19EC0BF0456EF0
:1010F0009FEF08F02DEC05F071EF08F05AEC0AF0C4
:1011000071EF08F0BFEC06F071EF08F0B6EC05F0F7
:1011100071EF08F0A0EC0BF0010E0A6E000E0B6EE2
:101120002FEC0AF00B0E446E260E436E5E0EE82E78
:10113000FED7432EFCD7442EFAD771EF08F0455066
:101140002A0AD8B471EF08F06B0AD8B47AEF08F025
:10115000030AD8B47EEF08F0010AD8B482EF08F091
:10116000070AD8B486EF08F08AEF08F0FEEF3FF0E8
:10117000066A02BEC0EF08F0BEEF08F0C6EF08F046
:10118000016C021ED8B0022A010E066E04BECDEF1D
:1011900008F0CBEF08F0D1EF08F0036C041ED8B0D4
:1011A000042A03500410D8B4D8EF08F0DAEF08F09E
:1011B000FEEF08F0010E056EE2EF08F0D89003365E
:1011C0000436052A04AEE7EF08F0E9EF08F0DEEF99
:1011D00008F00350015C04500258D8A0F2EF08F068
:1011E000F4EF08F0F8EF08F00350015E0450025AE3
:1011F000D89004320332052EE9EF08F00650D8B437
:1012000004EF09F006EF09F00AEF09F0016C021E85
:10121000D8B0022A01C001F002C002F01200076E2D
:101220009590959295949598959A959C959E839076
:101230008392839407C059F006C058F05A6A5B6ADB
:10124000080E556E026A320E016E33EC0BF083907D
:101250008394030E5AEC09F0026A050E016E33EC1A
:101260000BF0030E5AEC09F0026A960E016E73EC55
:101270000BF0030E5AEC09F0026A960E016E73EC45
:101280000BF0020E5AEC09F0026A960E016E73EC36
:101290000BF05550200983EC0AF0040E566EB3ECA7
:1012A0000BF0A0EC0BF0020E576E5750040983ECC4
:1012B0000AF01200046E04C003F0010E0316033A94
:1012C00083500318EF0B0318836E04C003F0D8900B
:1012D0000332010E0316033A034683500318DF0B53
:1012E0000318836E04C003F0D8900332D890033201
:1012F000010E0316033A0346034683500318BF0B3F
:101300000318836E04C003F0D8900332D8900332E0
:10131000D8900332010E03160332033283500318B0
:101320007F0B0318836E60EC0BF01200066A000E50
:10133000056E03500410D8B4A0EF09F0A2EF09F035
:10134000CAEF09F0010E076EAAEF09F0D890033634
:101350000436072A04AEAFEF09F0B1EF09F0A6EFAB
:1013600009F0D890053606360350015C0450025847
:10137000D8A0BDEF09F0BFEF09F0C4EF09F00350AA
:10138000015E0450025A0580D89004320332072EC1
:10139000B1EF09F005C001F006C002F012004A0EDC
:1013A000F66E150EF76E000EF86E00EE60F010EEA1
:1013B00040F00900F5CFEEFFE550E150FAE1560E9E
:1013C000F66E170EF76E000EF86E00EE46F010EE99
:1013D0000FF00900F5CFEEFFE550E150FAE100EE25
:1013E000A0F0230EEE6AE806FDE100EE55F00B0ECC
:1013F000EE6AE806FDE1000EF86E00015EEF08F00F
:1014000016EF0AF008C0F6FF09C0F7FFF86A070EEA
:10141000F76403D00800F55005D0F6CFE9FFF7CF09
:10142000EAFFEF5093EC0BF0084A092A08C0F6FFD8
:1014300009C0F7FFF86A070EF76403D00800F550FB
:1014400005D0F6CFE9FFF7CFEAFFEF500009D8A4A7
:101450002CEF0AF02EEF0AF002EF0AF012000AC099
:1014600001F0E5EC0AF001500D6E0C6A59500D5C6C
:10147000D8B03DEF0AF03FEF0AF04CEF0AF00D5004
:10148000595C016E026AD8A00206046A020E036E5D
:10149000A3EC07F001500C6E0BC006F00C50FFECF3
:1014A0000AF00AC008F00850D8A4080E096E00EC33
:1014B0000AF01200A0EC0BF05A0E0A6E000E0B6E32
:1014C0002FEC0AF05F0E0A6E010E0B6E2FEC0AF085
:1014D000A00E086E33EC04F01B6E2A0E1B18D8A465
:1014E00074EF0AF076EF0AF078EF0AF082EF0AF074
:1014F0001A0E1A6EF80EE82EFED71A2EFCD700D060
:1015000068EF0AF01200056E8390839205380F0B86
:101510005AEC09F005500F0B5AEC09F00504D8B449
:1015200094EF0AF096EF0AF09FEF0AF0020E05180A
:10153000D8A49DEF0AF09FEF0AF0A4EF0AF0026A28
:10154000020E016E33EC0BF012001F1F1F1F1F1F36
:101550001F1F1F11151115111F0004150E1B0E154D
:101560000400040E0E0E1F00040004150E1B0E15C1
:101570000400040E0E1F040E1504313233413435BD
:101580003642373839432A302344096E070E09168C
:101590000938E842F80B400983EC0AF00A6A08505F
:1015A0000A24D96EDA6ADF5093EC0BF00A2A070E90
:1015B0000A64DDEF0AF0DFEF0AF0CFEF0AF05AC05D
:1015C00006F05B50FFEC0AF0120001C003F0EAEFF6
:1015D0000AF0012A01C0F6FF080EF76E0800F55068
:1015E0000009D8A4F6EF0AF0F8EF0AF0E9EF0AF0E4
:1015F0000350015C016E026A01BE02061200076E12
:101600005850065CD8A007EF0BF009EF0BF00BEF7A
:101610000BF05804066E06C05AF007C05BF0065087
:101620004E0FD96EDA6ADF500724800983EC0AF086
:1016300012001C6A29EF0BF01AC008F033EC04F01A
:101640001C6E1A0E1B6EF80EE82EFED71B2EFCD752
:1016500000D01C50D8B42FEF0BF031EF0BF01CEF83
:101660000BF01C5012003CEF0BF0030E036E980EB3
:10167000E82EFED7032EFCD70106D8A002060128CB
:1016800006E10228D8A447EF0BF049EF0BF035EF45
:101690000BF01200A0EC0BF0290E0A6E000E0B6E80
:1016A0002FEC0AF0010E066E000EFFEC0AF0440E5D
:1016B000086E0850D8A4080E096E00EC0AF012005B
:1016C0008394026A010E016E73EC0BF08384026A4C
:1016D000010E016E73EC0BF08394026A640E016ECE
:1016E00073EC0BF0120076EF0BF000D00106D8A0DF
:1016F0000206012806E10228D8A481EF0BF083EF4F
:101700000BF075EF0BF01200010E5C26000E5D224F
:101710005E225F225CC001F05DC002F05EC003F09B
:101720005FC004F01200076E8380839207380F0BAE
:101730005AEC09F007500F0B5AEC09F05B2A120023
:10174000010E83EC0AF05A6A5B6A026A020E016EAD
:1017500033EC0BF012001F000E111111111100409B
:051760001454E803032E
:0C17660056845650080983EC0AF012006B
:047FFC00CFEF09F0CA
:00000001FF
