:04000000FEEF3FF0E0
:100800000050726573696F6E65207465636C61007A
:100810004B45595041442054455354005465636C32
:10082000613A202D2D005465636C613A2000202030
:09083000202020003C003E0000E5
:10083A0008C001F065EC06F0196EABEC08F001C0D7
:10084A0015F002C016F003C017F004C018F0FDEF4F
:10085A0004F01950D8B434EF04F036EF04F015EF71
:10086A0005F00850D96EDA6A180ED92619C0DFFFCA
:10087A000850D96EDA6A1A0ED926010EDF6E0850B0
:10088A00D96EDA6A1F0ED92615C0DEFF16C0DEFF42
:10089A0017C0DEFF18C0DEFF0850D96EDA6A1B0ED9
:1008AA00D92615C0DEFF16C0DEFF17C0DEFF18C04E
:1008BA00DEFF195016EF05F00850D96EDA6A180EE5
:1008CA00D9261950DE18D8A46DEF04F06FEF04F0A2
:1008DA00AFEF04F023C001F024C002F0046A0A0E4C
:1008EA00036E47EC07F00150096E02500A6E0B6A5C
:1008FA000C6A0850D96EDA6A1F0ED926DECF0DF0BF
:10090A00DECF0EF0DECF0FF0DECF10F00D50155C0B
:10091A00116E0E501658126E0F501758136E105053
:10092A001858146E0950115C0A5012580B5013587B
:10093A000C501458D8A0A4EF04F0A6EF04F015EF59
:10094A0005F00850D96EDA6A1A0ED926020EDF6E41
:10095A0015EF05F01950D8A4B5EF04F0B7EF04F07D
:10096A0015EF05F00850D96EDA6A1A0ED926030E69
:10097A00DF6E0850D96EDA6A180ED9260850E16E71
:10098A00E26A190EE126DFCFE7FF15EF05F00850FE
:10099A00D96EDA6A180ED9261950DE18D8B4D8EFEB
:1009AA0004F0DAEF04F015EF05F00850D96EDA6AB0
:1009BA001A0ED926030EDF6E0850D96EDA6A180E9F
:1009CA00D9260850E16EE26A190EE126DFCFE7FF69
:1009DA0015EF05F00850D96EDA6A1A0ED926DF6AC1
:1009EA000850D96EDA6A180ED926DF6A15EF05F0B3
:1009FA000850D96EDA6A1A0ED926DF50000AD8B41E
:100A0A002EEF04F0010AD8B461EF04F0030AD8B457
:100A1A00CCEF04F0010AD8B4EFEF04F015EF05F0BB
:100A2A00000E1200036A046A0350040D0250F324F4
:100A3A000424D96EDA6A0350040D0150F324042405
:100A4A00E16EE26ADFCFE7FF042A030E046430EFA7
:100A5A0005F032EF05F019EF05F0032A030E0364DF
:100A6A0039EF05F03BEF05F018EF05F00150D96EAC
:100A7A00DA6A100ED926DF6A0150D96EDA6A110EC7
:100A8A00D926010EDF6E0150D96EDA6A120ED92606
:100A9A00020EDF6E0150D96EDA6A130ED926030EE2
:100AAA00DF6E0150D96EDA6A140ED926040EDF6E93
:100ABA000150D96EDA6A150ED926050EDF6E01507D
:100ACA00D96EDA6A160ED926060EDF6E0150D96E75
:100ADA00DA6A170ED926070EDF6EF00E936E81685A
:100AEA00F19E0150D96EDA6A180ED926DF6A0150D2
:100AFA00D96EDA6A190ED926DF6A0150D96EDA6A16
:100B0A001A0ED926DF6A0150D96EDA6A1B0ED92667
:100B1A00DE6ADE6ADE6ADD6A0150D96EDA6A1F0EA3
:100B2A00D926DE6ADE6ADE6ADD6A12001C6ADDEC3C
:100B3A0008F0020E066E100EC0EC06F0600E016E92
:100B4A00250E026E17EC05F080EC07F0600E086EB9
:100B5A001DEC04F01E6E1E50D8B4B6EF05F0B8EFC7
:100B6A0005F0F9EF05F01C501E18D8B4BFEF05F0D8
:100B7A00C1EF05F0F9EF05F0000E066E000E3CEC31
:100B8A0008F01D6A200EBAEC08F01D2A0F0E1D642B
:100B9A00D1EF05F0D3EF05F0C7EF05F0000E066EB2
:100BAA00070E3CEC08F01E50BAEC08F0010E066E77
:100BBA00000E3CEC08F0260E066E56EC08F01E50AD
:100BCA00BAEC08F02E0E066E56EC08F01EC01CF0A9
:100BDA00030E1B6E080E1A6E770EE82EFED71A2E1B
:100BEA00FCD71B2EFAD700001A0E1A6EF80EE82E42
:100BFA00FED71A2EFCD700D0ABEF05F0FEEF3FF080
:100C0A00066A04BE0DEF06F00BEF06F013EF06F0CE
:100C1A00036C041ED8B0042A010E066E02BE1AEF37
:100C2A0006F018EF06F020EF06F0016C021ED8B0AD
:100C3A00022A010E061A086A000E076E03500410F3
:100C4A00D8B42AEF06F02CEF06F054EF06F0010EA6
:100C5A00056E34EF06F0D89003360436052A04AE42
:100C6A0039EF06F03BEF06F030EF06F0D890073682
:100C7A0008360350015C04500258D8A047EF06F02A
:100C8A0049EF06F04EEF06F00350015E0450025A97
:100C9A000780D89004320332052E3BEF06F0065047
:100CAA00D8B45AEF06F05CEF06F060EF06F0076C76
:100CBA00081ED8B0082A07C001F008C002F01200C6
:100CCA00046A0F0E811201500424D96EDA6A100EDA
:100CDA00D926DF50026E010E036E022A77EF06F064
:100CEA00D8900336022E75EF06F00350FF0A8116DC
:100CFA00060EE82EFED700D0056A01500524D96EEB
:100D0A00DA6A140ED926DF50026E010E036E022A29
:100D1A0091EF06F0D8900336022E8FEF06F00350BB
:100D2A0081140009D8A49CEF06F09EEF06F0AAEF02
:100D3A0006F00F0E81120450040D0150F32405240D
:100D4A00D96EDA6ADF50BFEF06F0052A030E056492
:100D5A00B1EF06F0B3EF06F082EF06F0042A030EB5
:100D6A000464BAEF06F0BCEF06F066EF06F00F0E69
:100D7A008112000E1200076E95909592959495989F
:100D8A00959A959C959E83908392839407C039F097
:100D9A0006C038F03A6A3B6A080E356E026A320EAD
:100DAA00016E70EC08F083908394030E0BEC07F04D
:100DBA00026A050E016E70EC08F0030E0BEC07F0E8
:100DCA00026A960E016E9AEC08F0030E0BEC07F01D
:100DDA00026A960E016E9AEC08F0020E0BEC07F00E
:100DEA00026A960E016E9AEC08F035502009DFEC83
:100DFA0007F0040E366EE5EC08F0D2EC08F0020EAD
:100E0A00376E37500409DFEC07F01200046E04C095
:100E1A0003F0010E0316033A83500318EF0B03186D
:100E2A00836E04C003F0D8900332010E0316033A0E
:100E3A00034683500318DF0B0318836E04C003F0C4
:100E4A00D8900332D8900332010E0316033A0346B0
:100E5A00034683500318BF0B0318836E04C003F0C4
:100E6A00D8900332D8900332D8900332010E031679
:100E7A0003320332835003187F0B0318836E87EC07
:100E8A0008F01200066A000E056E03500410D8B46A
:100E9A0051EF07F053EF07F07BEF07F0010E076EF3
:100EAA005BEF07F0D89003360436072A04AE60EFEA
:100EBA0007F062EF07F057EF07F0D89005360636CD
:100ECA000350015C04500258D8A06EEF07F070EF8F
:100EDA0007F075EF07F00350015E0450025A0580CF
:100EEA00D89004320332072E62EF07F005C001F0F2
:100EFA0006C002F01200D2EC08F0100E096E000EC5
:100F0A000A6EB8EC07F0010E096E010E0A6EB8EC13
:100F1A0007F0150E0E6E4B0E0D6EBE0EE82EFED7A6
:100F2A000D2EFCD70E2EFAD700D0D2EC08F0000E08
:100F3A00066E000E3CEC08F0360E066E56EC08F013
:100F4A00000E066E0F0E3CEC08F0340E066E56ECE0
:100F5A0008F0010E066E000E3CEC08F01C0E066E40
:100F6A0056EC08F0120009C001F022EC08F001501A
:100F7A000C6E0B6A39500C5CD8B0C6EF07F0C8EF9C
:100F8A0007F0D5EF07F00C50395C016E026AD8A061
:100F9A000206046A020E036E05EC06F001500B6E9F
:100FAA000AC006F00B503CEC08F009C006F056ECFB
:100FBA0008F01200056E8390839205380F0B0BEC34
:100FCA0007F005500F0B0BEC07F00504D8B4F0EF4F
:100FDA0007F0F2EF07F0FBEF07F0020E0518D8A4AE
:100FEA00F9EF07F0FBEF07F000EF08F0026A020ED4
:100FFA00016E70EC08F012008E0EF66E110EF76E8E
:10100A00000EF86E00EE1FF010EE16F00900F5CF94
:10101A00EEFFE550E150FAE100EE60F0230EEE6AD1
:10102A00E806FDE100EE35F00B0EEE6AE806FDE19A
:10103A00000EF86E00019BEF05F001C003F027EFE8
:10104A0008F0012A01C0F6FF080EF76E0800F550F5
:10105A000009D8A433EF08F035EF08F026EF08F0BE
:10106A000350015C016E026A01BE02061200076E9D
:10107A003850065CD8A044EF08F046EF08F048EF75
:10108A0008F03804066E06C03AF007C03BF0065076
:10109A001F0FD96EDA6ADF5007248009DFEC07F0E8
:1010AA00120061EF08F006C0F6FF080EF76E08009E
:1010BA00F550BAEC08F0062A06C0F6FF080EF76EDD
:1010CA000800F5500009D8A46DEF08F06FEF08F09A
:1010DA0058EF08F0120079EF08F0030E036E980E2D
:1010EA00E82EFED7032EFCD70106D8A00206012857
:1010FA0006E10228D8A484EF08F086EF08F072EF20
:10110A0008F012008394026A010E016E9AEC08F04C
:10111A008384026A010E016E9AEC08F08394026AD3
:10112A00640E016E9AEC08F012009DEF08F000D0F0
:10113A000106D8A00206012806E10228D8A4A8EFD1
:10114A0008F0AAEF08F09CEF08F01200010E3C2606
:10115A00000E3D223E223F223CC001F03DC002F07B
:10116A003EC003F03FC004F01200056E83808392F4
:10117A0005380F0B0BEC07F005500F0B0BEC07F0C3
:10118A003B2A120000401454E8033132334134350B
:10119A003642373839432A302344010EDFEC07F050
:1011AA003A6A3B6A026A020E016E70EC08F012009B
:1011BA00720ED36E956AF00E936E0F0EC16E120008
:0C11CA00368436500809DFEC07F01200F4
:047FFC0001EF08F099
:020000040030CA
:0E0000000008191EFF8080FF0FC00FE00F40A8
:00000001FF
