:04000000FEEF3FF0E0
:100800000000720ED36E936A896A0F0EC16E9268F1
:100810008A6A80CF01F04DEF04F03F0E8A6E09EF37
:1008200004F0060E8A6E09EF04F05B0E8A6E09EF83
:1008300004F04F0E8A6E09EF04F0660E8A6E09EF1F
:1008400004F06D0E8A6E09EF04F07D0E8A6E09EFDA
:1008500004F0070E8A6E09EF04F07F0E8A6E09EF2E
:1008600004F06F0E8A6E09EF04F0770E8A6E09EFBE
:1008700004F07C0E8A6E09EF04F0390E8A6E09EFDF
:1008800004F05E0E8A6E09EF04F0790E8A6E09EFAD
:1008900004F0710E8A6E09EF04F00150000AD8B41A
:1008A0000DEF04F0010AD8B411EF04F0030AD8B434
:1008B00015EF04F0010AD8B419EF04F0070AD8B410
:1008C0001DEF04F0010AD8B421EF04F0030AD8B4F4
:1008D00025EF04F0010AD8B429EF04F00F0AD8B4C8
:1008E0002DEF04F0010AD8B431EF04F0030AD8B4B4
:1008F00035EF04F0010AD8B439EF04F0070AD8B490
:100900003DEF04F0010AD8B441EF04F0030AD8B473
:1009100045EF04F0010AD8B449EF04F008EF04F001
:0E092000FEEF3FF0000EF86E000101EF04F054
:047FFC0092EF04F00C
:020000040030CA
:0E0000000008191EFF8080FF0FC00FE00F40A8
:00000001FF
