:04000000FEEF3FF0E0
:100800000000720ED36E936A896A0F0EC16E9268F1
:100810008A6A80CF01F039EF04F0540E8A6E09EF36
:1008200004F05C0E8A6E09EF04F0400E8A6E09EF48
:1008300004F06F0E8A6E09EF04F01C0E8A6E09EF49
:1008400004F06D0E8A6E09EF04F0780E8A6E09EFDF
:1008500004F05E0E8A6E09EF04F0730E8A6E09EFE3
:1008600004F0500E8A6E09EF04F0790E8A6E09EFDB
:1008700004F00150000AD8B40DEF04F0010AD8B416
:1008800011EF04F0030AD8B415EF04F0010AD8B44C
:1008900019EF04F0070AD8B41DEF04F0010AD8B428
:1008A00021EF04F0030AD8B425EF04F0010AD8B40C
:1008B00029EF04F00F0AD8B415EF04F0010AD8B4F8
:1008C0002DEF04F0030AD8B431EF04F0010AD8B4D4
:1008D00011EF04F0070AD8B425EF04F0010AD8B4E8
:1008E00035EF04F0030AD8B41DEF04F0010AD8B4C0
:1008F00021EF04F008EF04F0FEEF3FF0000EF86E79
:06090000000101EF04F00C
:047FFC007EEF04F020
:020000040030CA
:0E0000000008191EFF8080FF0FC00FE00F40A8
:00000001FF
